{
  "contractName": "SimpleStorage2",
  "abi": [
    {
      "inputs": [],
      "stateMutability": "nonpayable",
      "type": "constructor"
    },
    {
      "anonymous": false,
      "inputs": [
        {
          "indexed": false,
          "internalType": "uint256",
          "name": "pushed",
          "type": "uint256"
        }
      ],
      "name": "PushArray",
      "type": "event"
    },
    {
      "anonymous": false,
      "inputs": [
        {
          "indexed": false,
          "internalType": "uint256",
          "name": "toSet",
          "type": "uint256"
        }
      ],
      "name": "SetInt",
      "type": "event"
    },
    {
      "anonymous": false,
      "inputs": [
        {
          "indexed": false,
          "internalType": "string",
          "name": "toSet",
          "type": "string"
        }
      ],
      "name": "SetString",
      "type": "event"
    },
    {
      "inputs": [
        {
          "internalType": "uint256",
          "name": "",
          "type": "uint256"
        }
      ],
      "name": "arrayInt",
      "outputs": [
        {
          "internalType": "uint256",
          "name": "",
          "type": "uint256"
        }
      ],
      "stateMutability": "view",
      "type": "function",
      "constant": true
    },
    {
      "inputs": [],
      "name": "owner",
      "outputs": [
        {
          "internalType": "address",
          "name": "",
          "type": "address"
        }
      ],
      "stateMutability": "view",
      "type": "function",
      "constant": true
    },
    {
      "inputs": [],
      "name": "storedInt",
      "outputs": [
        {
          "internalType": "uint256",
          "name": "",
          "type": "uint256"
        }
      ],
      "stateMutability": "view",
      "type": "function",
      "constant": true
    },
    {
      "inputs": [],
      "name": "storedString",
      "outputs": [
        {
          "internalType": "string",
          "name": "",
          "type": "string"
        }
      ],
      "stateMutability": "view",
      "type": "function",
      "constant": true
    },
    {
      "inputs": [
        {
          "internalType": "uint256",
          "name": "toSet",
          "type": "uint256"
        }
      ],
      "name": "setInt",
      "outputs": [],
      "stateMutability": "nonpayable",
      "type": "function"
    },
    {
      "inputs": [
        {
          "internalType": "string",
          "name": "toSet",
          "type": "string"
        }
      ],
      "name": "setString",
      "outputs": [],
      "stateMutability": "nonpayable",
      "type": "function"
    },
    {
      "inputs": [
        {
          "internalType": "uint256",
          "name": "toSet",
          "type": "uint256"
        }
      ],
      "name": "pushArray",
      "outputs": [],
      "stateMutability": "nonpayable",
      "type": "function"
    }
  ],
  "bytecode": "0x608060405234801561001057600080fd5b5033600360006101000a81548173ffffffffffffffffffffffffffffffffffffffff021916908373ffffffffffffffffffffffffffffffffffffffff1602179055506106e7806100616000396000f3fe608060405234801561001057600080fd5b506004361061007d5760003560e01c8063444203111161005b57806344420311146101755780637fcaf666146101a35780638da5cb5b1461025e578063fac8b339146102925761007d565b806302dd56d0146100825780631069e9fb1461010557806316cdf82514610147575b600080fd5b61008a6102b0565b6040518080602001828103825283818151815260200191508051906020019080838360005b838110156100ca5780820151818401526020810190506100af565b50505050905090810190601f1680156100f75780820380516001836020036101000a031916815260200191505b509250505060405180910390f35b6101316004803603602081101561011b57600080fd5b810190808035906020019092919050505061034e565b6040518082815260200191505060405180910390f35b6101736004803603602081101561015d57600080fd5b8101908080359060200190929190505050610372565b005b6101a16004803603602081101561018b57600080fd5b810190808035906020019092919050505061042f565b005b61025c600480360360208110156101b957600080fd5b81019080803590602001906401000000008111156101d657600080fd5b8201836020820111156101e857600080fd5b8035906020019184600183028401116401000000008311171561020a57600080fd5b91908080601f016020809104026020016040519081016040528093929190818152602001838380828437600081840152601f19601f8201169050808301925050505050505091929192905050506104ca565b005b6102666105da565b604051808273ffffffffffffffffffffffffffffffffffffffff16815260200191505060405180910390f35b61029a610600565b6040518082815260200191505060405180910390f35b60018054600181600116156101000203166002900480601f0160208091040260200160405190810160405280929190818152602001828054600181600116156101000203166002900480156103465780601f1061031b57610100808354040283529160200191610346565b820191906000526020600020905b81548152906001019060200180831161032957829003601f168201915b505050505081565b6002818154811061035e57600080fd5b906000526020600020016000915090505481565b600360009054906101000a900473ffffffffffffffffffffffffffffffffffffffff1673ffffffffffffffffffffffffffffffffffffffff163373ffffffffffffffffffffffffffffffffffffffff16146103cc57600080fd5b60028190806001815401808255809150506001900390600052602060002001600090919091909150557f60fb6e04ae3af5859caccc4acf600c9e67af867afebed92534cc057b7178e4d1816040518082815260200191505060405180910390a150565b600360009054906101000a900473ffffffffffffffffffffffffffffffffffffffff1673ffffffffffffffffffffffffffffffffffffffff163373ffffffffffffffffffffffffffffffffffffffff161461048957600080fd5b806000819055507f853b2d29324e4b2a7559cf7f6ebb2523760c6973eef8632d46c1fcb9e4b8ec61816040518082815260200191505060405180910390a150565b600360009054906101000a900473ffffffffffffffffffffffffffffffffffffffff1673ffffffffffffffffffffffffffffffffffffffff163373ffffffffffffffffffffffffffffffffffffffff161461052457600080fd5b806001908051906020019061053a929190610606565b507faca7bbe148e406c46e1cbcbe436b7316e446b784cdbf5c2d8b01fb6be5af5af8816040518080602001828103825283818151815260200191508051906020019080838360005b8381101561059d578082015181840152602081019050610582565b50505050905090810190601f1680156105ca5780820380516001836020036101000a031916815260200191505b509250505060405180910390a150565b600360009054906101000a900473ffffffffffffffffffffffffffffffffffffffff1681565b60005481565b828054600181600116156101000203166002900490600052602060002090601f01602090048101928261063c5760008555610683565b82601f1061065557805160ff1916838001178555610683565b82800160010185558215610683579182015b82811115610682578251825591602001919060010190610667565b5b5090506106909190610694565b5090565b5b808211156106ad576000816000905550600101610695565b509056fea2646970667358221220dfc166306d0599f239e5cb157bb457412a5a12a2f1e7f0d1e5df668a82234bf864736f6c63430007060033",
  "immutableReferences": {},
  "source": "// SPDX-License-Identifier: MIT\npragma solidity 0.7.6;\n\ncontract SimpleStorage2 {\n    // Variables \n    uint public storedInt;\n    string public storedString;\n    uint[] public arrayInt;\n    address public owner;\n    \n    // Eventos\n    event SetInt(uint toSet);\n    event SetString(string toSet);\n    event PushArray(uint pushed);\n    \n    // Modificadores\n    modifier onlyOwner() {\n        require(msg.sender == owner);\n        _;\n    }\n    \n    // Constructor\n    constructor() {\n        owner = msg.sender;\n    }\n    \n    // Metodos\n    function setInt(uint toSet) public onlyOwner {\n        storedInt = toSet;\n        emit SetInt(toSet);\n    }\n    \n    function setString(string memory toSet) public onlyOwner {\n        storedString = toSet;\n        emit SetString(toSet);\n    }\n    \n    function pushArray(uint toSet) public onlyOwner {\n        arrayInt.push(toSet);\n        emit PushArray(toSet);\n    }\n}\n",
  "sourcePath": "/Users/ernestognw/Documents/blockdemy/blockchain-developer-professional/2021/marzo/infura-truffle/contracts/SimpleStorage.sol",
  "compiler": {
    "name": "solc",
    "version": "0.7.6+commit.7338295f.Emscripten.clang"
  },
  "schemaVersion": "3.3.4",
  "updatedAt": "2021-04-03T20:21:47.924Z",
  "networkType": "ethereum",
  "devdoc": {
    "kind": "dev",
    "methods": {},
    "version": 1
  },
  "userdoc": {
    "kind": "user",
    "methods": {},
    "version": 1
  }
}